{
  "unspents": [
    {
      "date": "2021-11-03T02:12:40.000Z",
      "tx_hash": "e20185c66e904c3589f341e0303208d8806ad4bcbb0b6b79c62562626fdfa39c",
      "tx_output_n": 1,
      "value": 405000,
      "address": "1111111111111111111114oLvT2",
      "script": "76a914000000000000000000000000000000000000000088ac",
      "blockHeight": "707958",
      "confirmations": 45172
    }
  ],
  "pendingTransactions": false,
  "count": 1,
  "total": 1,
  "start": 158272
}

Bitgo
curl "https://www.bitgo.com/api/v1/tx/e20185c66e904c3589f341e0303208d8806ad4bcbb0b6b79c62562626fdfa39c" | jq
{
  "id": "e20185c66e904c3589f341e0303208d8806ad4bcbb0b6b79c62562626fdfa39c",
  "normalizedHash": "ae77bede114e4a7e9e24832bc90f6be7b0d0c6b3b6b4179d3b9dbd9bea48c163",
  "date": "2021-11-03T02:12:40.000Z",
  "pos": 21,
  "fee": 23419,
  "inputs": [
    {
      "previousHash": "355a873cd9ce1f5a9a9530e3b17bfcb35ba593dda8363719dac5a834c81c43ff",
      "previousOutputIndex": 2
    }
  ],
  "outputs": [
    {
      "vout": 0,
      "account": null,
      "value": 0
    },
    {
      "vout": 1,
      "account": "1111111111111111111114oLvT2",
      "value": 405000
    },
    {
      "vout": 2,
      "account": "17APcwDBUYrgXKwMqYH6RsGkiRmhiQ7Ez3",
      "value": 117979066
    }
  ],
  "entries": [
    {
      "account": "1111111111111111111114oLvT2",
      "value": 405000
    },
    {
      "account": "17APcwDBUYrgXKwMqYH6RsGkiRmhiQ7Ez3",
      "value": -428419
    }
  ],
  "confirmations": 45173,
  "pending": false,
  "blockhash": "00000000000000000000240fcdca7b495a738b895bed14b35c7ae07b81140dd5",
  "height": 707958,
  "replayProtection": [],
  "hex": "0100000001ff431cc834a8c5da193736a8dd93a55bb3fc7bb1e330959a5a1fced93c875a35020000006b483045022100c8f1274dad195ce7ee362854b078f7bdaae36a593af0270d1fd4368f02f654b00220079134c87362cd3643e47e3137063a5fe398c73f9dbfcaa6d8da679101ebfc3b01210355459a64f40fdee501f55f3c4b778caf1d4c9d26fe8d3873df4d6e463495f4aefdffffff030000000000000000536a4c5058325b6e8ce2fb19bc4a0e58ba50f1e706d78246ea78662c5e6239b3bbe3fea508722439623dde18b210aa95adfb46cb246d62bafde3bb5f6987cd884c94c17db2384d000acd75000f000ac9eb00a202082e0600000000001976a914000000000000000000000000000000000000000088acba370807000000001976a9144397615609ebb13c36847a6ca710b386ccfd4e1a88ac00000000"
}

{
  "txid": "e20185c66e904c3589f341e0303208d8806ad4bcbb0b6b79c62562626fdfa39c",
  "hash": "e20185c66e904c3589f341e0303208d8806ad4bcbb0b6b79c62562626fdfa39c",
  "version": 1,
  "size": 318,
  "vsize": 318,
  "weight": 1272,
  "locktime": 0,
  "vin": [
    {
      "txid": "355a873cd9ce1f5a9a9530e3b17bfcb35ba593dda8363719dac5a834c81c43ff",
      "vout": 2,
      "scriptSig": {
        "asm": "3045022100c8f1274dad195ce7ee362854b078f7bdaae36a593af0270d1fd4368f02f654b00220079134c87362cd3643e47e3137063a5fe398c73f9dbfcaa6d8da679101ebfc3b[ALL] 0355459a64f40fdee501f55f3c4b778caf1d4c9d26fe8d3873df4d6e463495f4ae",
        "hex": "483045022100c8f1274dad195ce7ee362854b078f7bdaae36a593af0270d1fd4368f02f654b00220079134c87362cd3643e47e3137063a5fe398c73f9dbfcaa6d8da679101ebfc3b01210355459a64f40fdee501f55f3c4b778caf1d4c9d26fe8d3873df4d6e463495f4ae"
      },
      "sequence": 4294967293
    }
  ],
  "vout": [
    {
      "value": 0,
      "n": 0,
      "scriptPubKey": {
        "asm": "OP_RETURN 58325b6e8ce2fb19bc4a0e58ba50f1e706d78246ea78662c5e6239b3bbe3fea508722439623dde18b210aa95adfb46cb246d62bafde3bb5f6987cd884c94c17db2384d000acd75000f000ac9eb00a202",
        "desc": "raw(6a4c5058325b6e8ce2fb19bc4a0e58ba50f1e706d78246ea78662c5e6239b3bbe3fea508722439623dde18b210aa95adfb46cb246d62bafde3bb5f6987cd884c94c17db2384d000acd75000f000ac9eb00a202)#5lezy8rp",
        "hex": "6a4c5058325b6e8ce2fb19bc4a0e58ba50f1e706d78246ea78662c5e6239b3bbe3fea508722439623dde18b210aa95adfb46cb246d62bafde3bb5f6987cd884c94c17db2384d000acd75000f000ac9eb00a202",
        "type": "nulldata"
      }
    },
    {
      "value": 0.00405,
      "n": 1,
      "scriptPubKey": {
        "asm": "OP_DUP OP_HASH160 0000000000000000000000000000000000000000 OP_EQUALVERIFY OP_CHECKSIG",
        "desc": "addr(1111111111111111111114oLvT2)#ula7cdg0",
        "hex": "76a914000000000000000000000000000000000000000088ac",
        "address": "1111111111111111111114oLvT2",
        "type": "pubkeyhash"
      }
    },
    {
      "value": 1.17979066,
      "n": 2,
      "scriptPubKey": {
        "asm": "OP_DUP OP_HASH160 4397615609ebb13c36847a6ca710b386ccfd4e1a OP_EQUALVERIFY OP_CHECKSIG",
        "desc": "addr(17APcwDBUYrgXKwMqYH6RsGkiRmhiQ7Ez3)#22mx9a6r",
        "hex": "76a9144397615609ebb13c36847a6ca710b386ccfd4e1a88ac",
        "address": "17APcwDBUYrgXKwMqYH6RsGkiRmhiQ7Ez3",
        "type": "pubkeyhash"
      }
    }
  ],
  "hex": "0100000001ff431cc834a8c5da193736a8dd93a55bb3fc7bb1e330959a5a1fced93c875a35020000006b483045022100c8f1274dad195ce7ee362854b078f7bdaae36a593af0270d1fd4368f02f654b00220079134c87362cd3643e47e3137063a5fe398c73f9dbfcaa6d8da679101ebfc3b01210355459a64f40fdee501f55f3c4b778caf1d4c9d26fe8d3873df4d6e463495f4aefdffffff030000000000000000536a4c5058325b6e8ce2fb19bc4a0e58ba50f1e706d78246ea78662c5e6239b3bbe3fea508722439623dde18b210aa95adfb46cb246d62bafde3bb5f6987cd884c94c17db2384d000acd75000f000ac9eb00a202082e0600000000001976a914000000000000000000000000000000000000000088acba370807000000001976a9144397615609ebb13c36847a6ca710b386ccfd4e1a88ac00000000",
  "blockhash": "00000000000000000000240fcdca7b495a738b895bed14b35c7ae07b81140dd5",
  "confirmations": 45172,
  "time": 1635905560,
  "blocktime": 1635905560
}
